:020000040000FA
:020000000528D1
:08000800090083160313003008
:100010008600831203130030A200A300831603138B
:10002000193099008316031318151812831203133D
:100030009817181318168312031386178C1E1E2880
:100040001A08A0008C1E22281A08A1000030A20263
:10005000031947280030A302031947282208A002E9
:10006000031D5B282308A102031D5B2883120313D1
:100070008617831203131430A60006166720061293
:100080007220A60B3D280030A200A3005B282008A8
:10009000A2002108A3008312031386138312031303
:1000A0001430A6008312031306165C2006127D206E
:1000B0000000A60B54281E28C630A4000130A5005D
:1000C000A40B6328A50B60286528000008002A30CF
:1000D000A4000230A500A40B6E28A50B6B28702885
:1000E000000008007230A4000F30A500A40B79288E
:1000F000A50B76287B2800000800D630A4000F301E
:10010000A500A40B8428A50B8128862800000800E0
:00000001FF
